:100000000C9470000C9498000C9498000C94980038
:100010000C9498000C9498000C9498000C944E0842
:100020000C9498000C9498000C9498000C94270859
:100030000C9498000C9498000C9498000C949800E0
:100040000C94F11C0C9498000C94190D0C945C0DFC
:100050000C9498000C9498000C9498000C949800C0
:100060000C9498000C9498003603FD023A030103A7
:10007000040307030B030E031203150318031B03EA
:100080001E03220326032A032D033003000000076A
:100090000002010000030406000000000000000050
:1000A000010204081020408001020408102001020F
:1000B00004081020040404040404040402020202DC
:1000C00002020303030303030000000025002800CD
:1000D0002B0000000000240027002A00AB1ABA1AE7
:1000E00011241FBECFEFD8E0DEBFCDBF12E0A0E0ED
:1000F000B1E0E4E9FAE402C005900D92A037B1073F
:10010000D9F723E0A0E7B2E001C01D92A535B20700
:10011000E1F710E0C0E7D0E004C02197FE010E94A3
:100120000221CE36D107C9F70E94981A0C944825AF
:100130000C9400000C94921DCF93DF93EC01842F5C
:100140001E821F821886E4E0F0E0FA87E98791E0DA
:100150009B87488359833B832A8363307105C1F0B1
:1001600038F46130710561F06230710561F013C0DF
:100170006530710541F020F06630710549F00BC023
:1001800028E030E002C02AE030E03D832C8305C047
:100190002CE030E0FACF1D821C8261E00E94131E29
:1001A00061E08A810E94131E61E088810E944F1ED7
:1001B00061E08A810E944F1E0E94480C81E00E94EB
:1001C000620C80E00E946B0C8985DF91CF910C94CA
:1001D000700CFC0166830895FC0160870895FC01A2
:1001E0006387862F08956130710519F4FC01178229
:1001F00006C06230710529F421E0FC01278381E00B
:10020000089580E008956730710540F4FC0172871D
:100210006187862F0E94700C81E0089580E0089528
:10022000CF93DF93EC018885882311F02A9804C0CE
:1002300060E088810E944F1E8E8190E090E4899F4B
:10024000902D882711242F81222319F020E030E0FF
:1002500002C020E030E2822B932B892F0E94921A59
:1002600080E00E94921A8885882321F02A9ADF91E3
:10027000CF91089561E08881DF91CF910C944F1E5A
:10028000FF920F931F93CF93DF938C01EB01F42E1A
:10029000FC01848195818C30910511F4DF7008C0D8
:1002A0008A30910511F4D37003C0089709F4DD2753
:1002B000F8018085882311F02A9805C060E0F801D4
:1002C00080810E944F1EF801868190E09C0130E4FD
:1002D000239F302D2227112480E090E09F2D9795B9
:1002E00099279795822B932B2781222319F040E0A1
:1002F00050E002C040E050E2F801648175812CE0DA
:1003000030E0261B370B02C0CC0FDD1F2A95E2F729
:10031000D061842B952BC82BD92B8D2F0E94921A3C
:100320008C2F0E94921AF8018085882339F02A9A2E
:10033000DF91CF911F910F91FF90089561E0F80137
:100340008081DF91CF911F910F91FF900C944F1EF0
:1003500040E050E00C9440010C94A80141E050E0D2
:100360000C944001CF93DF93FC018281938197FD30
:1003700011C02085222321F05F9800005F9A0AC0F7
:10038000EF0160E00E944F1E61E08A81DF91CF9112
:100390000C944F1EDF91CF9108950F931F93CF932D
:1003A000DF93EC018A0140E050E00E94400141E00F
:1003B00050E0B801CE010E9440018B85882339F0BE
:1003C000CE01DF91CF911F910F910C94B201DF917B
:1003D000CF911F910F910895CF93DF93EC0160E0CF
:1003E00088890E944F1E80EC0E94921A61E08889E1
:1003F0000E944F1E6AE070E080E090E0DF91CF91B4
:100400000C946C1D1F93CF93DF93EC01162F60E0CB
:1004100088890E944F1E83E00E94921A812F0E94B9
:10042000921A80E00E94921A182F61E088890E9437
:100430004F1E812FDF91CF911F910895DF92EF9290
:10044000FF920F931F93CF93DF937C01162FD42E2F
:10045000C52FD22F60E0FC0180890E944F1E83E0EF
:100460000E94921A812F0E94921A0D2D1C2FC0E01B
:10047000CD1751F0C83041F080E00E94921AF80187
:1004800081938F01CF5FF4CF61E0F7018089DF9125
:10049000CF911F910F91FF90EF90DF900C944F1E22
:1004A0000F931F93CF93DF93EC01062F142F60E07F
:1004B00088890E944F1E82E00E94921A802F0E941B
:1004C000921A812F0E94921A61E08889DF91CF9160
:1004D0001F910F910C944F1EDF92EF92FF920F939A
:1004E0001F93CF93DF938C01C62FD42EE52EF22ECF
:1004F00060E0FC0180890E944F1E82E00E94921AF7
:100500008C2F0E94921ACD2DDE2DCE018F0D911DC4
:100510007C01CE15DF0521F089910E94921AF9CF56
:1005200061E0F8018089DF91CF911F910F91FF90D9
:10053000EF90DF900C944F1EFF920F931F93CF9379
:10054000DF93EC01F62E042F122F60E088890E94C1
:100550004F1E85E00E94921A8F2D0E94921A802FC2
:100560000E94921A812F0E94921A61E08889DF917D
:10057000CF911F910F91FF900C944F1E1F93CF931B
:10058000DF93EC0160E088890E944F1E80EA0E94A0
:10059000921A80E00E94921A182F61E088890E94C6
:1005A0004F1E812FDF91CF911F9108950F931F93BD
:1005B000CF938C01C62F262F40EE6FE00E949C0245
:1005C0006FE0C8010E940202982F907E81E09C1388
:1005D00001C080E0CF911F910F9108950F931F9359
:1005E000CF93DF93462F50E0FA013197E231F105C6
:1005F000D8F5EC5CFF4F0C940221C7E8DFEF4FE128
:100600003CC0C7E0DAEB38C0C5E8D1EF35C0C7E081
:10061000DEEB49E032C0C7E8DFEF02C0C7E8DAEF3F
:1006200047E02BC0C7E8DFEF0BC0C7E0DEEB08C038
:10063000C7E0DDEA05C0C7E8DAEF02C0C6E8D0EFE0
:1006400043E01BC0C7E8DAEF41E017C0C5E8D1EFCF
:1006500041E413C0C6E8D0EF05C0C4E0D0EA02C050
:10066000C2E8D0ED40E009C081E016C0C7E8DFEF86
:100670004FE303C0C7E8DFEF4FE08C016AE20E945E
:1006800050024D2F69E2C8010E9450024C2F68E2CF
:10069000C8010E94500280E0DF91CF911F910F911D
:1006A00008950F931F93CF938C01C0E340E06C2F0C
:1006B000C8010E94500260E16C0F40E0C8010E9436
:1006C000500260E26C0F40E0C8010E945002CF5F10
:1006D000CE3361F740E060E6C8010E94500240E07E
:1006E00060E7C801CF911F910F910C9450020F93B6
:1006F0001F93CF93DF93EC01062F0E94EC0160E87B
:10070000CE010E94D602182F6AE070E080E090E0EF
:1007100011110CC00E946C1D602FCE010E94EE02D0
:10072000882339F06AE070E080E090E00E946C1D60
:1007300028C06AE070E080E090E00E946C1DCE016D
:100740000E94510343E06BE2CE010E94500224E07C
:1007500044E660E6CE010E949C0220E040E660E7AD
:10076000CE010E949C0260E0CE010E94D602C82FFA
:100770008823C1F26AE070E080E090E00E946C1D86
:100780001C2F812FDF91CF911F910F9108950F930F
:100790001F93CF93DF9300D000D0CDB7DEB74130A9
:1007A000B1F40C831B83890122273327502F5C71FE
:1007B000402F437078E0579F400D112448604A83D2
:1007C00055E0169507955A95E1F709830DC0A801E4
:1007D00023E0569547952A95E1F749830295000F46
:1007E000007E0A831C821B8224E0AE014F5F5F4FB4
:1007F0000E946C020F900F900F900F90DF91CF919D
:100800001F910F910895EF92FF920F931F93CF9333
:10081000DF9300D000D0CDB7DEB77A018901FA01AD
:100820001082F901108211821282138224E0AE013B
:100830004F5F5F4F0E941E022A813981822F90E014
:1008400065E0959587956A95E1F7F8E03F9F800D03
:10085000911D1124092E000CAA0BBB0BF8018083FB
:100860009183A283B38323FF25C032E0880F991FB1
:10087000AA1FBB1F3A95D1F72370820F911DA11DAE
:10088000B11DBA2FA92F982F88272B81820F911D78
:10089000A11DB11DBA2FA92F982F88272C81820F57
:1008A000911DA11DB11D80839183A283B38381E03B
:1008B000F70180830F900F900F900F90DF91CF91F1
:1008C0001F910F91FF90EF900895FF920F931F9348
:1008D000CF93DF93EC01F62E8A01AC014A5F5F4FA4
:1008E00065E06F0D2D810E946C020130110519F435
:1008F0008D8180648D8364E06F0D4D81CE010E94F7
:10090000500209811A812B813C8148816F2DCE01D3
:100910000E94C703DF91CF911F910F91FF9008951F
:100920000F931F93CF93DF93EC01162F9C012F5F42
:100930003F4FAC010E9403046FEF610FCE010E9494
:100940000202082F64E0610FCE010E94020203FB45
:10095000002700F90E87282F2F702D83AE014A5FE4
:100960005F4F65E0610FCE01DF91CF911F910F9135
:100970000C941E02615028E048E00C949C028F9277
:100980009F92AF92BF92CF92DF92EF92FF921F930E
:10099000CF93DF9300D01F92CDB7DEB74C016B0130
:1009A0008091070190910801A091090189839A83A0
:1009B000AB83FB011082CE0101967C015E0194E0C5
:1009C000A90EB11CF70111917F01612FC4010E9492
:1009D0000202982F987083FD04C01F5FF6011083F8
:1009E00004C0EA14FB0471F792E0892F0F900F9076
:1009F0000F90DF91CF911F91FF90EF90DF90CF90FC
:100A0000BF90AF909F908F900895FC01608B0895E8
:100A10001F93CF93DF93EC01162F61E088890E942A
:100A2000131E61E088890E944F1E0E94480C612FAE
:100A3000CE010E94770391E0811101C090E0892FDF
:100A4000DF91CF911F9108958F929F92AF92BF92A5
:100A5000DF92EF92FF920F931F93CF93DF937C016E
:100A6000D62ED42F480159016AE070E080E090E072
:100A70000E946C1D60E8C7010E94D602C82F88231F
:100A800029F06AE070E080E090E01CC0D11005C061
:100A9000950184014D2F60E207C081E0D81207C0A4
:100AA000950184014D2F64E2C7010E94C70360E0F5
:100AB000C7010E94D602C82F6AE070E080E090E093
:100AC000CC2321F00E946C1D8C2F03C00E946C1D52
:100AD00080E0DF91CF911F910F91FF90EF90DF9019
:100AE000BF90AF909F908F9008958F929F92AF92FA
:100AF000BF92DF92EF92FF920F931F93CF93DF93FA
:100B00007C01D62FD42E480159016AE070E080E0C4
:100B100090E00E946C1D60E8C7010E94D602C82FB9
:100B2000882329F06AE070E080E090E037C0D2309E
:100B3000C9F048F4DD2389F0D13029F5950184010D
:100B40004D2D64E01DC0D430B9F088F0D530D9F413
:100B5000950184014D2D68E113C0950184014D2D4F
:100B600060E00EC0950184014D2D68E009C095013B
:100B700084014D2D60E104C0950184014D2D64E197
:100B8000C7010E94C70360E0C7010E94D602C82FB8
:100B90006AE070E080E090E0CC2321F00E946C1DC0
:100BA0008C2F03C00E946C1D80E0DF91CF911F91BC
:100BB0000F91FF90EF90DF90BF90AF909F908F903C
:100BC0000895CF92DF920F931F93FC0120834183FE
:100BD000528363837483093008F008E005833696F6
:100BE000D60110E0CD018C199D09801791071CF4E6
:100BF0008D918193F7CF80E01F910F91DF90CF907F
:100C00000895EF92FF920F931F93FC01208341837D
:100C1000528363837483093008F008E005833696B5
:100C2000D70110E0CD018E199F09801791071CF4A0
:100C30008D918193F7CF80E01F910F91FF90EF90FE
:100C40000895FC011182128213821482158210828F
:100C50001686178680E00895CF92DF92EF92FF927A
:100C60000F931F93CF93DF931F92CDB7DEB77C0115
:100C70006B0100E010E0BE016F5F7F4FC7010E9473
:100C8000BF040F5F1F4F823021F40233110599F723
:100C900020C002331105E9F0A6016981C7010E9455
:100CA00065046981C7010E94BA0400E010E00F5F8B
:100CB0001F4F69816150C7010E94020283FF04C077
:100CC00002331105A1F707C00233110521F080E0BE
:100CD00003C086E001C087E00F90DF91CF911F91A4
:100CE0000F91FF90EF90DF90CF900895AF92BF9259
:100CF000CF92DF92EF920F93CF935C01C02F0E2D16
:100D0000EC2E0E94E1056C2F70E0C501CF910F9190
:100D1000EF90DF90CF90BF90AF900C942C06EF92A5
:100D2000FF920F93CF93DF93EC010E94010660E0E6
:100D300070E0CE01DF91CF910F91FF90EF900C9476
:100D40002C06CF93DF93EC010E94BE0280FF07C008
:100D500061E6CE010E94900420E041E008C081FFDE
:100D60000CC061E7CE010E94900420E042E06CE2FA
:100D7000CE010E949C0280E001C084E0DF91CF910F
:100D80000895EF92FF920F931F93CF93DF93EC019F
:100D90008B017A010E94A106811111C09D81F80189
:100DA0009083DE011696F7012D8130E0AF014E19D8
:100DB0005F09421753072CF49D919193F5CFF801E9
:100DC0001082DF91CF911F910F91FF90EF900895C6
:100DD000CF92DF92EF92FF920F931F93CF93DF9307
:100DE000EC016B018A0179010E94A10681111EC0EC
:100DF0009D81F801908349815A816B817C81F60144
:100E00004083518362837383DE011696F70120E0ED
:100E100030E04D8150E02417350754F42830310577
:100E200039F09D9191932F5F3F4FF3CFF8011082DE
:100E3000DF91CF911F910F91FF90EF90DF90CF90B6
:100E400008950E94BE02837011F484E0089583E047
:100E500008956DE20E940202887F09F085E00895FE
:100E6000FC0161817281838194810895FC018685F2
:100E70000895FC018081089540E052EC61E070E04B
:100E800087E992E00E94DB0D6AE071E087E992E079
:100E90000C940D10CF93DF93EC0160E1CE010E9422
:100EA0000805882369F062E370E080E090E00E942A
:100EB0006C1D6CE171E087E992E00E940D10EDCFAE
:100EC0006FE271E087E992E0DF91CF910C940D1011
:100ED000CF93DF9361157105F1F0EB0121E1FB0187
:100EE00011922A95E9F7F8949B01275F3F4FAB01D8
:100EF0004C5F5F4F0E94E806811109C00E943B1DB4
:100F00006D837E838F83988780E090E002C081E0CC
:100F100090E0789402C082E090E0DF91CF91089554
:100F20004F925F926F927F928F929F92AF92BF92F9
:100F3000CF92DF92EF92FF920F931F93CF93DF93A5
:100F400000D000D000D0CDB7DEB79E838D83042FB4
:100F5000122F6B01770FEE08FF08412C512C320144
:100F6000812C912C54014C145D046E047F048CF48C
:100F7000802F0E94CD1D092E000CAA0BBB0B880EE2
:100F8000991EAA1EBB1E8FEF481A580A680A780AD3
:100F9000EACFC501B401A70196010E94E320DA015E
:100FA000C90132E0880F991FAA1FBB1F3A95D1F7DC
:100FB00089839A83AB83BC83412C512C3201812CD1
:100FC000912C54014C145D046E047F048CF4812F29
:100FD0000E94CD1D092E000CAA0BBB0B880E991E7A
:100FE000AA1EBB1E9FEF491A590A690A790AEACF5D
:100FF00069817A818D819E810E94A801C501B40119
:10100000A70196010E94E320CA01B90122E0660F00
:10101000771F881F991F2A95D1F78D819E8126966B
:101020000FB6F894DEBF0FBECDBFDF91CF911F91F9
:101030000F91FF90EF90DF90CF90BF90AF909F9077
:101040008F907F906F905F904F900C94AE011F92A5
:101050000F920FB60F9211242F933F934F935F93EC
:101060006F937F938F939F93AF93BF93EF93FF9370
:10107000E0917202F09173020995FF91EF91BF9197
:10108000AF919F918F917F916F915F914F913F9120
:101090002F910F900FBE0F901F9018951F920F92D7
:1010A0000FB60F9211242F933F934F935F936F933B
:1010B0007F938F939F93AF93BF93EF93FF93E091B1
:1010C0007002F09171020995FF91EF91BF91AF917C
:1010D0009F918F917F916F915F914F913F912F9150
:1010E0000F900FBE0F901F901895CF92DF92EF9246
:1010F000FF92CF93DF936B017C01EA01F894109289
:10110000800010928100109285001092840020E0EF
:1011100030E040E857E40E944F209B01AC0160E0C2
:1011200074E284E79BE40E94F01E0E94691F613014
:1011300021E072078105910550F080918100856062
:101140008093810060E074E080E090E036C061341C
:1011500071058105910550F0809181008460809334
:10116000810060E071E080E090E027C069307105A7
:101170008105910550F0809181008360809381000A
:1011800060E470E080E090E018C062307105810595
:10119000910550F08091810082608093810068E029
:1011A00070E080E090E009C08091810081608093D0
:1011B000810061E070E080E090E00E94981FA7014C
:1011C00096010E944F209B01AC0160E074E284E72D
:1011D0009BE40E94F01E20E030E040E85FE30E94C4
:1011E0007E1E0E94691F6115710521E0820791052D
:1011F00050F4611571058105910549F461E070E0D5
:1012000080E090E004C06FEF7FEF80E090E07093AB
:1012100089006093880080918100886080938100BC
:1012200080916F00826080936F00D0937302C093AF
:1012300072027894DF91CF91FF90EF90DF90CF9082
:101240000895CF92DF92EF92FF92CF93DF936B01DD
:101250007C01EA01F8941092B0001092B100109253
:10126000B20020E030E040E853E40E944F209B01B0
:10127000AC0160E074E284E79BE40E94F01E0E94EF
:10128000691F613021E072078105910550F080915E
:10129000B10087608093B10060E074E080E090E08E
:1012A00054C0613871058105910550F08091B100FD
:1012B00086608093B10060E071E080E090E045C01E
:1012C000613471058105910550F08091B100856010
:1012D0008093B10060E870E080E090E036C0613259
:1012E00071058105910550F08091B1008460809373
:1012F000B10060E470E080E090E027C069307105E3
:101300008105910550F08091B10083608093B10018
:1013100060E270E080E090E018C062307105810505
:10132000910550F08091B10082608093B10068E037
:1013300070E080E090E009C08091B100816080930E
:10134000B10061E070E080E090E00E94981FA7018A
:1013500096010E944F209B01AC0160E074E284E79B
:101360009BE40E94F01E20E030E040E85FE30E9432
:101370007E1E0E94691F6F3F71058105910509F06E
:1013800050F4611571058105910549F461E070E043
:1013900080E090E004C06FEF70E080E090E0609348
:1013A000B3008091B10082608093B10080917000A1
:1013B000826080937000D0937102C0937002789421
:1013C000DF91CF91FF90EF90DF90CF900895E4E709
:1013D000F2E010821182128210927702089561E089
:1013E00089E00E94131E60E08EE00E94131E60E000
:1013F0008FE00E94131E60E080E10E94131E60E0F7
:1014000081E10E94131E61E086E00E94131EF894A1
:1014100061E089E00E944F1E60E086E00E944F1E5E
:10142000789408950E943C0764E571E087E992E0B2
:101430000E94C20F88E792E00C944A07EF92FF9255
:101440000F93CF93DF93CDB7DEB728970FB6F894FD
:10145000DEBF0FBECDBF85E089838CEC8A83E4E7D5
:10146000F2E080818B8381818C8382818D83F894EB
:10147000CE0101967C0108E020E043E650E060E008
:1014800070E088E792E00E948F06789428960FB665
:10149000F894DEBF0FBECDBFDF91CF910F91FF90CB
:1014A000EF900895EF92FF920F93CF93DF93CDB714
:1014B000DEB728970FB6F894DEBF0FBECDBF85E02C
:1014C00089838CEC8A8382E090E0A0E0B0E08B839B
:1014D0009C83AD83BE83809176028F83F894CE0186
:1014E00001967C0108E020E049E950E060E070E00E
:1014F00088E792E00E948F06789428960FB6F894B9
:10150000DEBF0FBECDBFDF91CF910F91FF90EF9067
:10151000089580917402882361F080917702882376
:1015200041F00E94520A68E671E087E992E00C946B
:101530000D100895CF93DF93CDB7DEB761970FB647
:10154000F894DEBF0FBECDBFBE016F5F7F4F88E74F
:1015500092E00E946807892B09F04CC08A8585308B
:1015600009F048C08B858C3C09F044C089819A8180
:10157000AB81BC8182359105A105B10519F40E94AA
:10158000A60B38C083359105A105B10519F40E9459
:10159000150C30C082369105A105B10549F46C8562
:1015A0007D858E859F850E945A0B1092770222C0FE
:1015B00089399105A105B105E9F465E871E087E98C
:1015C00092E00E94C20F4C855D856E857F852AE082
:1015D00030E087E992E00E94991062EA71E087E9C1
:1015E00092E00E94C20F4AE050E0688987E992E0E9
:1015F0000E94AD1061960FB6F894DEBF0FBECDBF4E
:10160000DF91CF910895CF93DF93EC01F8948EE0B2
:101610000E94CD1D9B838A838FE00E94CD1D9983FC
:1016200088837894DF91CF910895CF93DF9300D092
:1016300000D0CDB7DEB780917402811104C08091D3
:101640007502882381F1CE0101960E94030B698106
:101650007A818B819C81680F791F7695679580E0F0
:1016600090E00E94981F20E030E049E353E40E949C
:101670004A2087FD11C080917602826080937602B5
:101680000E94520A81E0809375026BEA71E087E95B
:1016900092E00E940D1007C0809176028D7F8093AA
:1016A0007602109275020F900F900F900F90DF91BD
:1016B000CF9108950F931F93CF93DF9320917402DE
:1016C000222309F43EC08D3322E0920740F08C01C2
:1016D0000F318DE0180728F00EE11DE002C00DE388
:1016E00012E0653F710538F0EB016736764028F06F
:1016F000C6E6D6E002C0C5EFD0E01F930F938DEB96
:1017000091E09F938F930E948E22DF93CF938FED72
:1017100091E09F938F930E948E22F894B80189E8FC
:1017200092E00E94A801BE0189E892E00E94AE0109
:1017300078948DB79EB708960FB6F8949EBF0FBEEB
:101740008DBFDF91CF911F910F9108958091740209
:1017500081111DC080917502811119C02FE04EE0EA
:1017600064E170E089E892E00E949007F89461E0FB
:1017700086E00E944F1E78941092770281E0809359
:10178000740260E072E087E992E00C940D10089515
:10179000CF93DF9300D000D0CDB7DEB78091740235
:1017A000811104C08091760280FF38C0CE0101967D
:1017B0000E94030B8B819C81892B21F089819A8166
:1017C000892B19F58091950290919602019690933C
:1017D00096028093950204970CF1809176028E7F99
:1017E000809376020E94A60B6091950270919602FA
:1017F0004AE050E087E992E00E94381160E172E02F
:1018000087E992E00E940D1009C0809176028E7FD8
:101810008093760210929602109295020F900F908C
:101820000F900F90DF91CF910895809174028823DB
:10183000C1F02FE04EE064E170E089E892E00E94A0
:101840009007F89460E086E00E944F1E7894109212
:1018500077021092740260E472E087E992E00C94DF
:101860000D100895F89481E080937702789408959C
:1018700042E35CE060E070E080EA90E40E9475087A
:101880004EE15AE060E070E088E492E40C942109B3
:1018900061E08AE00E944F1E61E08AE00E94131E10
:1018A0008CB580618CBD8CB580648CBD61E08DE0B1
:1018B0000E94131E61E08BE00C94131E8CB58F7B8D
:1018C0008CBD0895811103C08CB5806202C08CB5B7
:1018D0008F7D8CBD08959CB5937F892B8CBD089519
:1018E0009CB59C7F282F2370922B9CBD2DB582FB2D
:1018F000992790F9822F8E7F892B8DBD0895FC0149
:1019000024853585F901E05CFF4F80819181329615
:1019100020813181821B930B8F7399270895DC01FD
:101920001C96ED91FC911D97DF01A05CBF4F2D919E
:101930003C91119712968D919C9111972817390718
:1019400039F08D919C91E80FF91F808190E0089506
:101950008FEF9FEF0895FC01A485B585FD01E05C44
:10196000FF4F20813181329680819181281739077C
:1019700079F080819181A80FB91F8C9120813181EC
:101980002F5F3F4F2F7333273183208390E00895DB
:101990008FEF9FEF0895FC0181A1882329F0A4898E
:1019A000B5898C9186FFFBCF11A208950F931F93E9
:1019B000CF93DF93FC01A685B7858D01005C1F4F97
:1019C000E8018881998101968F739927AD014E5B5B
:1019D0005F4FEA012881398128173907D1F3E801DF
:1019E00028813981A20FB31F6C93A685B785A05CAF
:1019F000BF4F11969C938E93A689B7892C9181E055
:101A000090E0078C02C0880F991F0A94E2F7822B9E
:101A10008C9381E081A30488F589E02D8081806426
:101A2000808381E090E0DF91CF911F910F91089525
:101A300008951F920F920FB60F9211242F934F9378
:101A40005F938F939F93EF93FF938091C00082FDEC
:101A50001CC02091C60080913D0390913E034091AF
:101A60003F035091400301968F73992748175907F8
:101A700071F0E0913D03F0913E03E350FD4F208370
:101A800090933E0380933D0302C08091C600FF9176
:101A9000EF919F918F915F914F912F910F900FBE7A
:101AA0000F901F90189587E992E00E947F0C892B78
:101AB00011F00C94180D08951F920F920FB60F920B
:101AC00011242F933F938F939F93EF93FF93209134
:101AD000F9023091FA028091FB029091FC022817E2
:101AE000390731F48091C1008F7D8093C10014C00B
:101AF000E091FB02F091FC02E754FD4F20818091C0
:101B0000FB029091FC0201968F7399279093FC023F
:101B10008093FB022093C600FF91EF919F918F91DC
:101B20003F912F910F900FBE0F901F9018958F929D
:101B30009F92AF92BF92CF92DF92EF92FF920F935C
:101B40001F93CF93DF93CDB7DEB7FC0113821282D0
:101B500088EE93E0A0E0B0E084839583A683B7830A
:101B600085E592E0918380837587648757874687F0
:101B7000318B208B138B028BF58AE48AD78AC68A35
:101B8000B18EA08E938E828E8F85848F8889858F6B
:101B90008989868F8A89878F8B8980A3DF91CF91EE
:101BA0001F910F91FF90EF90DF90CF90BF90AF907B
:101BB0009F908F900895CF92DF92EF92FF92CF93F4
:101BC000DF93EC016A017B014115514E61057105FE
:101BD00009F1EC89FD8981E090E008A002C0880F3E
:101BE000991F0A94E2F7808360E079E08DE390E04A
:101BF000A70196010E94C120DA01C9010197A1093C
:101C0000B109B695A795979587959C01211580E117
:101C10003807A8F0EC89FD89108260E874E88EE14D
:101C200090E0A70196010E94C120DA01C901019745
:101C3000A109B109B695A795979587959C01E88963
:101C4000F9893083EA89FB89208319A2EE89FF890B
:101C5000408181E090E09C010C8C02C0220F331F78
:101C60000A94E2F7242B2083EE89FF8940819C01AE
:101C70000D8C02C0220F331F0A94E2F7242B20831D
:101C8000EE89FF8940819C010E8C02C0220F331F18
:101C90000A94E2F7242B2083EE89FF8920810F8CA0
:101CA00002C0880F991F0A94E2F7809582238083EF
:101CB000DF91CF91FF90EF90DF90CF900895CF927A
:101CC000DF92EF92FF921F93CF93DF93EC016A01B3
:101CD0007B01122F4115514E6105710509F1EC8907
:101CE000FD8981E090E008A002C0880F991F0A9446
:101CF000E2F7808360E079E08DE390E0A701960150
:101D00000E94C120DA01C9010197A109B109B69564
:101D1000A795979587959C01211580E13807A8F034
:101D2000EC89FD89108260E874E88EE190E0A701FB
:101D300096010E94C120DA01C9010197A109B109E8
:101D4000B695A795979587959C01E889F989308381
:101D5000EA89FB892083E88DF98D1083EE89FF895C
:101D6000408181E090E09C010C8C02C0220F331F67
:101D70000A94E2F7242B2083EE89FF8940819C019D
:101D80000D8C02C0220F331F0A94E2F7242B20830C
:101D9000EE89FF8940819C010E8C02C0220F331F07
:101DA0000A94E2F7242B2083EE89FF8920810F8C8F
:101DB00002C0880F991F0A94E2F7809582238083DE
:101DC000DF91CF911F91FF90EF90DF90CF9008951A
:101DD000CF93DF93FC0186859785DC01A05CBF4F24
:101DE000EC01CE5BDF4F4D915C91119728813981D9
:101DF00042175307C1F7A689B7893C9181E090E06B
:101E0000AC01048C02C0440F551F0A94E2F7242F42
:101E1000209523232C93A689B7893C91AC01058C8E
:101E200002C0440F551F0A94E2F7242F2095232364
:101E30002C93A689B7893C91AC01068C02C0440F53
:101E4000551F0A94E2F7242F209523232C93A6896B
:101E5000B7892C91078C02C0880F991F0A94E2F76A
:101E6000809582238C9384859585FC01EE5BFF4FE2
:101E700020813181329731832083DF91CF91089582
:101E800081E00895CF92DF92EF92FF920F931F931C
:101E9000CF93DF936C01EB017B01E40EF51E00E0B4
:101EA00010E0CE15DF0561F06991D601ED91FC914E
:101EB0000190F081E02DC6010995080F191FF1CF9F
:101EC000C801DF91CF911F910F91FF90EF90DF90AC
:101ED000CF900895EF92FF920F931F93CF93DF93CC
:101EE0007C01FB0100E010E06491EF012196662384
:101EF00061F0D701ED91FC910190F081E02DC701D7
:101F00000995080F191FFE01EFCFC801DF91CF918E
:101F10001F910F91FF90EF900895AF92BF92CF92D3
:101F2000DF92EF92FF920F931F93CF93DF937C0189
:101F30006B01C0E0D0E000E010E0D60114968D9176
:101F40009C911597C817D90788F4D701ED91FC919A
:101F5000A080B180BE01C6010E948D17682FC70105
:101F6000F5010995080F191F2196E7CFC801DF91E8
:101F7000CF911F910F91FF90EF90DF90CF90BF9086
:101F8000AF9008950C94F51ADC01ED91FC9101904D
:101F9000F081E02D0994DB01ED91FC911197019006
:101FA000F081E02DBC01CD0109940F931F93CF93D5
:101FB000DF93EC016DE00E94C40F8C016AE0CE015A
:101FC0000E94C40F800F911FDF91CF911F910F913D
:101FD00008950F931F93CF93DF93EC010E946A0F34
:101FE0008C01CE010E94D50F800F911FDF91CF9100
:101FF0001F910F9108950F931F93CF93DF93EC01DF
:102000000E948D0F8C01CE010E94D50F800F911F71
:10201000DF91CF911F910F9108950F931F93CF934D
:10202000DF93EC010E94F51A8C01CE010E94D50FBE
:10203000800F911FDF91CF911F910F9108950F9302
:102040001F93CF93DF93EC010E94C40F8C01CE014C
:102050000E94D50F800F911FDF91CF911F910F919B
:1020600008950F931F93CF93DF93EC010E94CB0F42
:102070008C01CE010E94D50F800F911FDF91CF916F
:102080001F910F9108958F929F92AF92BF92CF921E
:10209000DF92EF92FF920F931F93CF93DF93CDB711
:1020A000DEB7A1970FB6F894DEBF0FBECDBF6C01AF
:1020B000142FE52FCB01022F19A2223008F40AE0D9
:1020C0007E0121E2E20EF11C802E912CA12CB12C7C
:1020D000612F7E2FA50194010E94C120029F10193B
:1020E000112481E0E81AF1081A3014F4105D01C0DF
:1020F000195CF7011083122FE32FCA01232B242B25
:10210000252B31F7B701C6010E94F51AA1960FB62B
:10211000F894DEBF0FBECDBFDF91CF911F910F911D
:10212000FF90EF90DF90CF90BF90AF909F908F90F7
:1021300008952115310541F4DC01ED91FC910190E8
:10214000F081E02D642F09940C9443109A01462FDE
:1021500050E060E070E00C9499100F931F93CF93C0
:10216000DF93EC010E94A6108C01CE010E94D50FD6
:10217000800F911FDF91CF911F910F9108959A01C8
:10218000AB0160E070E00C9499100F931F93CF9314
:10219000DF93EC010E94BF108C01CE010E94D50F8D
:1021A000800F911FDF91CF911F910F9108950F9391
:1021B0001F93CF93DF93EC010E9499108C01CE0105
:1021C0000E94D50F800F911FDF91CF911F910F912A
:1021D0000895CF92DF92EF92FF920F931F93CF93C8
:1021E000DF932115310581F4DC01ED91FC91019023
:1021F000F081E02D642FDF91CF911F910F91FF901F
:10220000EF90DF90CF9009942A30310501F577FFE8
:102210001DC06A017B01EC016DE20E94C40F8C01BC
:1022200044275527BA014C195D096E097F092AE038
:10223000CE010E944310800F911FDF91CF911F911B
:102240000F91FF90EF90DF90CF9008952AE0DF91FB
:10225000CF911F910F91FF90EF90DF90CF900C9452
:1022600043109A01AB01770F660B770B0C94E910C2
:102270000F931F93CF93DF93EC010E9431118C01D8
:10228000CE010E94D50F800F911FDF91CF911F913A
:102290000F9108950F931F93CF93DF93EC010E944A
:1022A000E9108C01CE010E94D50F800F911FDF91A4
:1022B000CF911F910F9108957F928F929F92AF922D
:1022C000BF92CF92DF92EF92FF920F931F93CF9323
:1022D000DF938C016A017B01722E9A01AB01C70169
:1022E000B6010E94BC20882319F061E672E027C085
:1022F00046015701E894B7F82FEF3FEF4FE75FE74C
:10230000C501B4010E94BC2081110DC02FEF3FEF29
:102310004FE75FE7C501B4010E94EB1E18161CF4DD
:1023200065E672E00CC02FEF3FEF4FE75FE4C701B7
:10233000B6010E944A20181694F469E672E0C801BA
:10234000DF91CF911F910F91FF90EF90DF90CF9091
:10235000BF90AF909F908F907F900C94F51A2FEFC5
:102360003FEF4FE75FECC701B6010E94EB1E87FD10
:10237000E4CF20E030E0A901C701B6010E94EB1EC6
:1023800087FF0AC06DE2C8010E94C40FEC01F7FA92
:10239000F094F7F8F09402C0C0E0D0E0B12C60E017
:1023A00070E080E09FE37B1441F020E030E040E209
:1023B00051E40E94F01EB394F6CFA70196010E944B
:1023C0007F1E6B017C010E94691F4B015C012AE0AA
:1023D000AB01BC01C8010E944310C80FD91F772070
:1023E000C9F1C501B4010E94981F9B01AC01C7014E
:1023F000B6010E947E1E6B017C016DE672E0C80191
:102400000E94F51AC80FD91F20E030E040E251E4E5
:10241000C701B6010E944F204B015C010E94621F60
:102420006B017C014AE050E0C8010E943111C80FE5
:10243000D91FB601DD0C880B990B0E949A1F9B01D6
:10244000AC01C501B4010E947E1E6B017C017A942F
:102450007110DACFCE01DF91CF911F910F91FF90D4
:10246000EF90DF90CF90BF90AF909F908F907F9034
:1024700008950C945C110F931F93CF93DF93EC019D
:102480000E945C118C01CE010E94D50F800F911F1C
:10249000DF91CF911F910F910895FC01DB01118213
:1024A0001082138212821582148216828D919C9161
:1024B00011979183808312968D919C9113979383AA
:1024C000828314968D919C911597958384831196A0
:1024D0001C921E9213961C921E92129715961C9295
:1024E0001E9214970895FC01DB0111821082138261
:1024F00012821582148216828D919C91119791837C
:10250000808312968D919C91139793838283149666
:102510008D919C9115979583848311961C921E92A0
:1025200013961C921E92129715961C921E92149747
:102530000895FC01808191810C94A21BCF93DF93BD
:10254000EC0188819981009711F00E94A21B1982E9
:1025500018821D821C821B821A82DF91CF910895FE
:102560000F931F93CF93DF93EC018B016F5F7F4F2E
:10257000888199810E942B1C009731F09983888370
:102580001B830A8381E001C080E0DF91CF911F911E
:102590000F910895CF93DF93EC0188819981892B66
:1025A00029F08A819B818617970760F4CE010E94EB
:1025B000B012882341F08C819D81892B19F4E88128
:1025C000F981108281E0DF91CF910895EF92FF921F
:1025D0000F931F93CF93DF93EC017B018A01BA0124
:1025E0000E94CA12811104C0CE010E949E1207C02F
:1025F0001D830C83B701888199810E94AE21CE0191
:10260000DF91CF911F910F91FF90EF900895FC0102
:102610001182108213821282158214821682611531
:10262000710551F0FB0101900020E9F73197AF01EE
:10263000461B570B0C94E61208950F931F93CF93EC
:10264000DF938C01EB01FC0180819181009799F06F
:10265000428153812C813D814217530750F068819C
:1026600079810E94AE218C819D81F80195838483BC
:1026700013C00E94A21B88819981F80191838083F5
:102680008A819B81938382838C819D8195838483BE
:10269000198218821B821A821D821C82DF91CF91BF
:1026A0001F910F910895CF93DF93EC01FB018617E3
:1026B000970761F0608171816115710529F044818E
:1026C00055810E94E61202C00E949E12CE01DF9147
:1026D000CF910895FC01118210821382128215821B
:1026E000148216820C945313CF93DF93EC01861758
:1026F000970711F00E941D13CE01DF91CF9108952D
:10270000CF93DF93EC016817790711F00E941D1336
:10271000CE01DF91CF910895CF93DF93EC01611546
:10272000710559F0FB0101900020E9F73197AF01E5
:10273000461B570B0E94E61202C00E949E12CE0159
:10274000DF91CF910895CF93DF9300D0CDB7DEB75F
:10275000FC01118210821382128215821482168269
:1027600069831A82BE016F5F7F4F0E948C130F90A6
:102770000F90DF91CF9108950F931F93CF93DF9325
:10278000CDB7DEB729970FB6F894DEBF0FBECDBF29
:102790008C01862FF8011182108213821282158219
:1027A0001482168250E0BE016F5F7F4F90E00E945E
:1027B0006922BE016F5F7F4FC8010E948C1329966A
:1027C0000FB6F894DEBF0FBECDBFDF91CF911F9142
:1027D0000F9108950F931F93CF93DF93CDB7DEB77B
:1027E00062970FB6F894DEBF0FBECDBF8C01CB0150
:1027F000F8011182108213821282158214821682CD
:1028000050E0BE016F5F7F4F0E94F721BE016F5FF6
:102810007F4FC8010E948C1362960FB6F894DEBFFA
:102820000FBECDBFDF91CF911F910F9108950F93F0
:102830001F93CF93DF93CDB7DEB761970FB6F894B0
:10284000DEBF0FBECDBF8C01CB01F801118210821B
:102850001382128215821482168250E0BE016F5FCD
:102860007F4F0E946922BE016F5F7F4FC8010E94A7
:102870008C1361960FB6F894DEBF0FBECDBFDF910B
:10288000CF911F910F9108950F931F93CF93DF93D3
:10289000CDB7DEB7A2970FB6F894DEBF0FBECDBF9F
:1028A0008C01CB01BA01F8011182108213821282CD
:1028B00015821482168230E0AE014F5F5F4F0E9496
:1028C0000D22BE016F5F7F4FC8010E948C13A2963C
:1028D0000FB6F894DEBF0FBECDBFDF91CF911F9131
:1028E0000F9108950F931F93CF93DF93CDB7DEB76A
:1028F000A1970FB6F894DEBF0FBECDBF8C01CB0100
:10290000BA01F80111821082138212821582148298
:10291000168230E0AE014F5F5F4F0E943C22BE0145
:102920006F5F7F4FC8010E948C13A1960FB6F89479
:10293000DEBF0FBECDBFDF91CF911F910F910895E4
:10294000EF92FF920F931F93CF93DF936115710561
:1029500011F480E01CC041155105C1F07B01EC0170
:102960008C819D818A01080F191FB801CE010E9438
:10297000CA12882371F3288139818C819D81B70126
:10298000820F931F0E94AE211D830C8381E0DF9193
:10299000CF911F910F91FF90EF900895FB0144811B
:1029A0005581608171810C94A0146115710551F0FD
:1029B000FB0101900020E9F73197AF01461B570B4F
:1029C0000C94A01480E00895CF93DF9300D0CDB78E
:1029D000DEB769831A8241E050E0BE016F5F7F4F2E
:1029E0000E94A0140F900F90DF91CF910895EF9265
:1029F000FF920F931F93CF93DF9300D000D0CDB7FA
:102A0000DEB77C01862F4AE08E010F5F1F4FB801B1
:102A100090E00E940222F80101900020E9F731972E
:102A2000AF01401B510BB801C7010E94A0140F90C9
:102A30000F900F900F90DF91CF911F910F91FF900A
:102A4000EF900895EF92FF920F931F93CF93DF9330
:102A5000CDB7DEB727970FB6F894DEBF0FBECDBF58
:102A60007C01CB014AE08E010F5F1F4FB8010E942D
:102A70000222F80101900020E9F73197AF01401BD5
:102A8000510BB801C7010E94A01427960FB6F89405
:102A9000DEBF0FBECDBFDF91CF911F910F91FF9091
:102AA000EF900895EF92FF920F931F93CF93DF93D0
:102AB00000D000D000D0CDB7DEB77C01CB014AE01A
:102AC0008E010F5F1F4FB8010E947422F801019020
:102AD0000020E9F73197AF01401B510BB801C70146
:102AE0000E94A01426960FB6F894DEBF0FBECDBF8D
:102AF000DF91CF911F910F91FF90EF900895EF928A
:102B0000FF920F931F93CF93DF93CDB7DEB72C9730
:102B10000FB6F894DEBF0FBECDBF7C01CB01BA016A
:102B20002AE08E010F5F1F4FA8010E941822F801B2
:102B300001900020E9F73197AF01401B510BB8011C
:102B4000C7010E94A0142C960FB6F894DEBF0FBEEA
:102B5000CDBFDF91CF911F910F91FF90EF9008951E
:102B6000EF92FF920F931F93CF93DF93CDB7DEB712
:102B70002B970FB6F894DEBF0FBECDBF7C01CB0103
:102B8000BA012AE08E010F5F1F4FA8010E94472261
:102B9000F80101900020E9F73197AF01401B510B7C
:102BA000B801C7010E94A0142B960FB6F894DEBF9F
:102BB0000FBECDBFDF91CF911F910F91FF90EF908E
:102BC0000895CF93DF93EC01FB014481558160812F
:102BD00071810E94A014811103C0CE010E949E1237
:102BE000CE01DF91CF910895CF93DF93EC01611572
:102BF000710561F0FB0101900020E9F73197AF0109
:102C0000461B570B0E94A014811103C0CE010E94E5
:102C10009E12CE01DF91CF910895CF93DF93EC0107
:102C20000E94E414811103C0CE010E949E12CE01C5
:102C3000DF91CF910895CF93DF93EC010E94F714B9
:102C4000811103C0CE010E949E12CE01DF91CF916F
:102C50000895CF93DF93EC010E942215811103C0E8
:102C6000CE010E949E12CE01DF91CF910895CF93A5
:102C7000DF93EC010E945215811103C0CE010E9426
:102C80009E12CE01DF91CF910895CF93DF93EC0197
:102C90000E947F15811103C0CE010E949E12CE01B9
:102CA000DF91CF910895CF93DF93EC010E94B0158F
:102CB000811103C0CE010E949E12CE01DF91CF91FF
:102CC0000895CF93DF93DC01ED91FC91EB01A88196
:102CD000B981309711F01097C9F4109759F0EB01B2
:102CE0002C813D81232B31F08C9190E09195819541
:102CF000910914C0309781F0DC0114968D919C915C
:102D00001597892B49F0808190E008C0BD01CF0163
:102D1000DF91CF910C94A52180E090E0DF91CF91DD
:102D20000895FC0144815581FB01248135814217BE
:102D3000530729F40E94611621E0892B09F020E055
:102D4000822F0895FC0124813581232B31F421E069
:102D500061157105A1F0FB0108C0FC018081918122
:102D60006115710531F421E0FC018081882339F07F
:102D700005C00E94A52121E0892B09F020E0822FC7
:102D800008950E946116892F881F8827881F08953B
:102D90000E94611621E0181619060CF020E0822F1F
:102DA00008950E94611621E0181619060CF420E01F
:102DB000822F08950E946116892F8095881F882789
:102DC000881F0895EF92FF920F931F93CF93DF9385
:102DD0008617970731F1FC0124813581FB0144817D
:102DE000558124173507D9F4232BD9F0DC010D9137
:102DF0001C91C081D181F80181918F01882389F0D4
:102E0000082E000C990B0E946F217C018991082EDD
:102E1000000C990B0E946F21E816F90661F380E01F
:102E200001C081E0DF91CF911F910F91FF90EF9052
:102E30000895DB011496ED91FC911597DC01149631
:102E40002D913C9115972E1B3F0B24173507A0F0B1
:102E50002D913C912115310579F0DB016D917C912B
:102E60006115710549F0CA01AF01820F931F0E94DD
:102E7000B52121E0892B09F020E0822F0895FC0183
:102E800044815581FB01248135814217530720F08D
:102E900040E050E00C94191780E00895FC01248173
:102EA0003581FB014481558124173507A0F0FC01D1
:102EB00080819181009779F0FB01608171816115BA
:102EC000710549F0241B350B820F931F0E94A52129
:102ED00021E0892B09F020E0822F0895FC01248154
:102EE00035816217730730F480819181FC01E60F10
:102EF000F71F40830895FC01248135816217730711
:102F000020F480819181009729F41092410381E49B
:102F100093E00895860F971F0895FC012481358161
:102F20006217730748F480819181009729F0FC01B2
:102F3000E60FF71F8081089580E008950C948D17A7
:102F40000F931F93CF93DF934115510519F161152D
:102F5000710501F1DC011496ED91FC9115972E1786
:102F60003F0718F0FB01108215C0E21BF30BEA01CA
:102F70002197EC17FD0708F4EF018B01FC0160813C
:102F80007181620F731FAE01C8010E94C321C00F7F
:102F9000D11F1882DF91CF911F910F910895CF9388
:102FA000DF93FC01248135814217530778F4C081F7
:102FB000D181062E000C770BCE01840F951F0E9445
:102FC0009A21009719F08C1B9D0B02C08FEF9FEF89
:102FD000DF91CF91089540E050E00C94CF17CF934C
:102FE000DF93FC01248135814217530780F4FB01F4
:102FF000DC01CD91DC9160817181CE01840F951F40
:103000000E94DD21009719F08C1B9D0B02C08FEFF1
:103010009FEFDF91CF91089540E050E00C94EF17BF
:10302000DF92EF92FF920F931F93CF93DF93DC0118
:1030300014962D913C9115974217530718F08FEF76
:103040009FEF1DC08C01EA012196DC01ED91FC91FE
:103050001197EC0FFD1FD0801082ED90FC90062E92
:10306000000C770BC7010E94D221CE0DDF1DD88244
:10307000009729F3F80120813181821B930BDF91A6
:10308000CF911F910F91FF90EF90DF900895FC0179
:1030900044815581415051090C941018AF92BF9250
:1030A000CF92DF92EF92FF920F931F93CF93DF9314
:1030B0007B018A01FB01448155814115510561F174
:1030C000FC01248135812115310531F124173507A3
:1030D00018F10217130718F0890101501109FC01BA
:1030E000A080B180C501DFEFCFEF6501C00ED11E1A
:1030F000C816D906A0F0F701608171810E94DD2118
:10310000009769F09C012A193B090217130710F078
:10311000D22FC32F0196ECCF8FEF9FEF02C08D2FE0
:103120009C2FDF91CF911F910F91FF90EF90DF9037
:10313000CF90BF90AF900895FC0144815581FB0171
:1031400024813581421B530B0C944E18BF92CF92B1
:10315000DF92EF92FF920F931F93CF93DF937C0147
:103160006B018A01E9012417350720F4812F8901B9
:10317000C42FD82F67E671E0C7010E940713D6015C
:1031800014968D919C91159780179107C8F08C1714
:103190009D0708F4EC01D601ED91FC911197EC0F1D
:1031A000FD1FB08010826D917C91600F711FC7016F
:1031B0000E948C13D601ED91FC91EC0FFD1FB082A3
:1031C000C701DF91CF911F910F91FF90EF90DF909A
:1031D000CF90BF900895CF93DF93EC01FB01248142
:1031E00035810E94A618CE01DF91CF910895DC01B0
:1031F000ED91FC91309741F08081882329F086136E
:1032000001C040833196F8CF08952F923F924F929C
:103210005F926F927F928F929F92AF92BF92CF9266
:10322000DF92EF92FF920F931F93CF93DF93FC01F6
:10323000448055804114510409F4CEC0FB018480C0
:1032400095808114910409F4C7C07A016B018C0147
:10325000FA016480758068187908FC01C081D18109
:1032600061147104B9F4F60160817181CE010E948C
:10327000DD21EC01009709F4AFC0F7016081718195
:10328000448155810E947F21F70184819581C80F77
:10329000D91FE9CF77FE44C05E01F60160817181DC
:1032A000C5010E94DD212C01009721F14C018A18F3
:1032B0009B08A401B501CE010E947F21C80DD91D34
:1032C000F7016081718144815581CE010E947F2187
:1032D000F70184819581C80FD91FF601A480B580BC
:1032E000A40CB51CF80184819581860D971D9583EA
:1032F0008483D3CFB501CE01DF91CF911F910F9180
:10330000FF90EF90DF90CF90BF90AF909F908F9005
:103310007F906F905F904F903F902F900C94AE21D4
:10332000FB01208031805201B101CE010E94DD21DC
:10333000009731F0EC01C80DD91DA60CB71CF4CFD5
:10334000A414B50409F448C0F801828193818A1558
:103350009B0530F4B501C8010E94B0128823E1F149
:10336000F801448155814150510957FD35C0B601DE
:10337000C8010E944E18EC0197FD2EC0F601248171
:103380003581280F391FF80180819181820F931FA9
:1033900044815581421B530BBC01860D971D0E9431
:1033A0008821F80184819581860D971D95838483FA
:1033B00020813181F901E80FF91F1082F801808125
:1033C0009181F70160817181448155818C0F9D1F2E
:1033D0000E947F21AE01C7CFDF91CF911F910F9146
:1033E000FF90EF90DF90CF90BF90AF909F908F9025
:1033F0007F906F905F904F903F902F900895CF9364
:10340000DF93FC01C081D181209751F0888188230E
:1034100039F0082E000C990B0E946F218993F6CF8A
:10342000DF91CF910895CF93DF93FC01C081D181CB
:10343000209751F08881882339F0082E000C990BD1
:103440000E9477218993F6CFDF91CF910895AF92B3
:10345000BF92CF92DF92EF92FF920F931F93CF9381
:10346000DF93DC01CD90DC901197C114D10409F4F5
:1034700043C01496CD91DC9115972097E9F18C010A
:1034800076015701BFEFAB1ABB0AF7018081082E06
:10349000000C990B0E946621892B11F07501F1CF68
:1034A0002197CC0DDD1D8881082E000C990B0E9400
:1034B0006621892B29F0CE15DF0510F02197F3CF77
:1034C000AE014F5F5F4F4E195F09D80115965C93AF
:1034D0004E931497CE14DF0420F4B701C6010E9466
:1034E0007F21D801ED91FC91119714968D919C91BB
:1034F0001597E80FF91F1082DF91CF911F910F915F
:10350000FF90EF90DF90CF90BF90AF900895FC01B7
:1035100080819181009711F00C943F2160E070E070
:10352000CB0108958EBD0DB407FEFDCF8EB5089575
:103530000E949A000E94E7090E94EF090E94120A65
:103540000E94380C6EE371E087E992E00E940D1052
:103550000E949A0AFDCF2FEF3FEF49E050E066E06E
:1035600070E089E892E00E949C006AE088E792E0BF
:103570000C940505E7E9F2E01382128288EE93E0ED
:10358000A0E0B0E084839583A683B78385E592E0CD
:10359000918380838DEF92E09587848789EB92E019
:1035A0009787868785EC90E0918B808B84EC90E008
:1035B000938B828B80EC90E0958B848B81EC90E0F8
:1035C000978B868B82EC90E0918F808F86EC90E0D9
:1035D000938F828F84E0848F83E0858F87E0868F4E
:1035E00085E0878F81E080A308956115710579F0EA
:1035F000FB0101900020E9F73197AF01461B570B03
:10360000DC01ED91FC910280F381E02D099480E0D2
:1036100090E008950F931F93CF93DF93823091052D
:1036200010F482E090E0E0914D03F0914E0320E031
:1036300030E0A0E0B0E0309719F140815181028183
:10364000138148175907C8F08417950769F4109734
:1036500031F012960C93129713961C9327C0009387
:103660004D0310934E0322C02115310519F0421766
:10367000530718F49A01BD01EF01DF01F801DBCF18
:1036800021153105F9F0281B390B2430310580F460
:103690008A819B816115710521F0FB0193838283EF
:1036A00004C090934E0380934D03FE01329644C0B4
:1036B000FE01E20FF31F8193919322503109398368
:1036C00028833AC020914B0330914C03232B41F4C3
:1036D000209102013091030130934C0320934B035E
:1036E00020910001309101012115310541F42DB7E0
:1036F0003EB74091040150910501241B350BE09128
:103700004B03F0914C03E217F307A0F42E1B3F0B81
:103710002817390778F0AC014E5F5F4F2417350743
:1037200048F04E0F5F1F50934C0340934B0381931F
:10373000919302C0E0E0F0E0CF01DF91CF911F91C3
:103740000F910895CF93DF93009709F481C0FC0196
:10375000329713821282A0914D03B0914E031097BD
:1037600081F420813181820F931F20914B0330918E
:103770004C032817390751F5F0934C03E0934B03A2
:1037800067C0ED0120E030E0CE17DF0740F44A814A
:103790005B819E0141155105F1F0EA01F5CFD3831C
:1037A000C28340815181840F951FC817D90759F4EE
:1037B00088819981840F951F0296918380838A81E5
:1037C0009B81938382832115310529F4F0934E0365
:1037D000E0934D033DC0E901FB83EA834991599190
:1037E000C40FD51FEC17FD0761F480819181840F10
:1037F000951F0296E90199838883828193819B8337
:103800008A83E0E0F0E012968D919C9113970097E7
:1038100019F0FD01DC01F7CF8D919C9111979D016D
:103820002E5F3F4F820F931F20914B0330914C032B
:103830002817390769F4309729F410924E03109233
:103840004D0302C013821282B0934C03A0934B032A
:10385000DF91CF910895A0E0B0E0E1E3FCE10C94AA
:103860000C21EC01009721F4CB010E940A1BB4C08B
:10387000FC01E60FF71F9C0122503109E217F30704
:1038800008F4A8C0D9010D911C91119706171707CC
:10389000B0F00530110508F49BC0C80104978617E5
:1038A000970708F495C002501109061B170B0193E6
:1038B00011936D937C93CF010E94A21B89C05B0181
:1038C000A01AB10A4C01800E911EA0914D03B09137
:1038D0004E03612C712CE12CF12C109709F446C099
:1038E0008D919C911197A815B905B1F56C0142E035
:1038F000C40ED11CCA14DB0478F14C018A189B0851
:10390000640142E0C40ED11C1296BC90129713962B
:10391000AC91B5E0CB16D10440F0B282A383918282
:103920008082D9016D937C9309C00E5F1F4F800F79
:10393000911FF90191838083EB2DFA2FE114F1049B
:1039400031F0D7011396FC93EE93129741C0F09398
:103950004E03E0934D033CC06816790608F43C0121
:103960007D0112960D90BC91A02DB7CF80914B0395
:1039700090914C0388169906E1F466167706C8F410
:103980008091000190910101009741F48DB79EB79D
:103990004091040150910501841B950BE817F9072C
:1039A000C8F4F0934C03E0934B03F90171836083F7
:1039B0000FC0CB010E940A1B7C01009759F0A8019F
:1039C000BE010E947F21CE010E94A21BC70104C03C
:1039D000CE0102C080E090E0CDB7DEB7EEE00C94FF
:1039E00028211F920F920FB60F9211242F933F930D
:1039F0008F939F93AF93BF93809143039091440320
:103A0000A0914503B09146033091420323E0230F78
:103A10002D3720F40196A11DB11D05C026E8230F06
:103A20000296A11DB11D20934203809343039093FE
:103A30004403A0934503B0934603809147039091BC
:103A40004803A0914903B0914A030196A11DB11DFD
:103A50008093470390934803A0934903B0934A038C
:103A6000BF91AF919F918F913F912F910F900FBE7A
:103A70000F901F9018952FB7F894609143037091A1
:103A8000440380914503909146032FBF08953FB7AB
:103A9000F8948091470390914803A0914903B09115
:103AA0004A0326B5A89B05C02F3F19F00196A11D1A
:103AB000B11D3FBFBA2FA92F982F8827820F911DC4
:103AC000A11DB11DBC01CD0142E0660F771F881F0B
:103AD000991F4A95D1F70895CF92DF92EF92FF9206
:103AE000CF93DF936B017C010E94471DEB01C11452
:103AF000D104E104F10479F00E94471D6C1B7D0B99
:103B0000683E7340A0F381E0C81AD108E108F108CB
:103B1000C851DC4FECCFDF91CF91FF90EF90DF9059
:103B2000CF900895789484B5826084BD84B5816017
:103B300084BD85B5826085BD85B5816085BDEEE6B5
:103B4000F0E0808181608083E1E8F0E01082808194
:103B500082608083808181608083E0E8F0E0808102
:103B600081608083E1EBF0E0808184608083E0EB22
:103B7000F0E0808181608083EAE7F0E0808184600A
:103B80008083808182608083808181608083808166
:103B9000806880831092C10008958E3008F08E50A6
:103BA0002091060190E4299F900111248770822BB7
:103BB00080937C0080917A00806480937A00809169
:103BC0007A0086FDFCCF809178002091790090E00A
:103BD000922B0895833081F028F4813099F082305F
:103BE000A1F008958630A9F08730B9F08430D1F47F
:103BF000809180008F7D03C0809180008F778093BB
:103C00008000089584B58F7702C084B58F7D84BD10
:103C100008958091B0008F7703C08091B0008F7DB0
:103C20008093B0000895CF93DF9390E0FC01E056BD
:103C3000FF4F2491FC01EC54FF4F8491882361F1E4
:103C400090E0880F991FFC01EE52FF4FC591D4916F
:103C5000FC01E853FF4FA591B491611109C09FB7D2
:103C6000F8948881209582238883EC912E230BC0C1
:103C7000623061F49FB7F8948881322F30958323A6
:103C80008883EC912E2B2C939FBF06C08FB7F8949E
:103C9000E8812E2B28838FBFDF91CF9108951F934A
:103CA000CF93DF93282F30E0F901E457FF4F849141
:103CB000F901E056FF4FD491F901EC54FF4FC49144
:103CC000CC23C1F0162F81110E94EA1DEC2FF0E0E9
:103CD000EE0FFF1FE853FF4FA591B4919FB7F894E3
:103CE000111104C08C91D095D82302C0EC91DE2B29
:103CF000DC939FBFDF91CF911F9108955058BB2750
:103D0000AA270E94961E0C9410200E94022038F0D0
:103D10000E94092020F039F49F3F19F426F40C94F6
:103D2000FF1F0EF4E095E7FB0C94F91FE92F0E94AA
:103D3000212058F3BA17620773078407950720F00C
:103D400079F4A6F50C9443200EF4E0950B2EBA2FCF
:103D5000A02D0B01B90190010C01CA01A001112491
:103D6000FF27591B99F0593F50F4503E68F11A163D
:103D7000F040A22F232F342F4427585FF3CF4695CE
:103D800037952795A795F0405395C9F77EF41F16F0
:103D9000BA0B620B730B840BBAF09150A1F0FF0FBA
:103DA000BB1F661F771F881FC2F70EC0BA0F621FA6
:103DB000731F841F48F4879577956795B795F79596
:103DC0009E3F08F0B0CF9395880F08F09927EE0F2B
:103DD0009795879508950E94D51F08F481E008956E
:103DE0000E94041F0C9410200E94092058F00E9489
:103DF000022040F029F45F3F29F00C94F91F511183
:103E00000C9444200C94FF1F0E94212068F39923F6
:103E1000B1F3552391F3951B550BBB27AA276217C6
:103E20007307840738F09F5F5F4F220F331F441FD3
:103E3000AA1FA9F335D00E2E3AF0E0E832D0915007
:103E40005040E695001CCAF72BD0FE2F29D0660FF4
:103E5000771F881FBB1F261737074807AB07B0E837
:103E600009F0BB0B802DBF01FF2793585F4F3AF03D
:103E70009E3F510578F00C94F91F0C9444205F3F4D
:103E8000E4F3983ED4F3869577956795B795F795C3
:103E90009F5FC9F7880F911D9695879597F90895AB
:103EA000E1E0660F771F881FBB1F62177307840747
:103EB000BA0720F0621B730B840BBA0BEE1F88F756
:103EC000E09508950E94691F6894B1110C944420F4
:103ED00008950E94292088F09F5798F0B92F9927BC
:103EE000B751B0F0E1F0660F771F881F991F1AF0E5
:103EF000BA95C9F714C0B13091F00E944320B1E0E7
:103F000008950C944320672F782F8827B85F39F0E5
:103F1000B93FCCF3869577956795B395D9F73EF47D
:103F200090958095709561957F4F8F4F9F4F089525
:103F3000E89409C097FB3EF4909580957095619543
:103F40007F4F8F4F9F4F9923A9F0F92F96E9BB27F9
:103F50009395F695879577956795B795F111F8CF75
:103F6000FAF4BB0F11F460FF1BC06F5F7F4F8F4FE0
:103F70009F4F16C0882311F096E911C0772321F0D6
:103F80009EE8872F762F05C0662371F096E8862F6E
:103F900070E060E02AF09A95660F771F881FDAF7C5
:103FA000880F9695879597F90895990F0008550FF2
:103FB000AA0BE0E8FEEF16161706E807F907C0F0AF
:103FC00012161306E407F50798F0621B730B840BB7
:103FD000950B39F40A2661F0232B242B252B21F491
:103FE00008950A2609F4A140A6958FEF811D811D31
:103FF000089597F99F6780E870E060E008959FEF6B
:1040000080EC089500240A9416161706180609066F
:10401000089500240A94121613061406050608953E
:10402000092E0394000C11F4882352F0BB0F40F4C6
:10403000BF2B11F460FF04C06F5F7F4F8F4F9F4F06
:10404000089557FD9058440F551F59F05F3F71F088
:104050004795880F97FB991F61F09F3F79F08795EF
:104060000895121613061406551FF2CF4695F1DF78
:1040700008C0161617061806991FF1CF8695710508
:10408000610508940895E894BB2766277727CB013C
:1040900097F908950E94D51F08F48FEF08950E94A4
:1040A00062200C9410200E94022038F00E94092007
:1040B00020F0952311F00C94F91F0C94FF1F11248C
:1040C0000C9444200E94212070F3959FC1F3950F1A
:1040D00050E0551F629FF001729FBB27F00DB11D8C
:1040E000639FAA27F00DB11DAA1F649F6627B00D1C
:1040F000A11D661F829F2227B00DA11D621F739F05
:10410000B00DA11D621F839FA00D611D221F749F12
:104110003327A00D611D231F849F600D211D822F59
:10412000762F6A2F11249F5750409AF0F1F0882380
:104130004AF0EE0FFF1FBB1F661F771F881F9150AD
:104140005040A9F79E3F510580F00C94F91F0C9444
:1041500044205F3FE4F3983ED4F3869577956795C6
:10416000B795F795E7959F5FC1F7FE2B880F911DD7
:104170009695879597F908950E94D51F880B990BFE
:104180000895A1E21A2EAA1BBB1BFD010DC0AA1F98
:10419000BB1FEE1FFF1FA217B307E407F50720F0B0
:1041A000A21BB30BE40BF50B661F771F881F991F2B
:1041B0001A9469F760957095809590959B01AC0174
:1041C000BD01CF010895052E97FB1EF400940E94B7
:1041D000FA2057FD07D00E94C12007FC03D04EF4FF
:1041E0000C94FA2050954095309521953F4F4F4FB4
:1041F0005F4F089590958095709561957F4F8F4F93
:104200009F4F0895EE0FFF1F0590F491E02D099444
:104210002F923F924F925F926F927F928F929F92D6
:10422000AF92BF92CF92DF92EF92FF920F931F93C4
:10423000CF93DF93CDB7DEB7CA1BDB0B0FB6F89475
:10424000DEBF0FBECDBF09942A88398848885F84B5
:104250006E847D848C849B84AA84B984C884DF8026
:10426000EE80FD800C811B81AA81B981CE0FD11D0A
:104270000FB6F894DEBF0FBECDBFED0108951F93BA
:10428000FC0199278827BC01E89411911032E9F3C9
:10429000193010F01E30C8F31B3251F01D3249F4B2
:1042A000689406C00E942722610F711D811D911D17
:1042B000119110531A30B0F33EF49095809570959B
:1042C00061957F4F8F4F9F4F1F91089591110C94CF
:1042D0008524803219F089508550C8F708959111CE
:1042E000089581548A5108F4805E855A0895911189
:1042F000089581568A5108F4805285580895FB012B
:10430000DC0102C001900D9241505040D8F7089551
:104310006817790768F4FB01DC01E40FF51FA40FAF
:10432000B51F02C002900E9241505040D8F7089538
:104330000C947F21FC018191861721F08823D9F705
:10434000992708953197CF010895FB01DC018D91E4
:10435000019080190110D9F3990B0895FB01DC013C
:1043600001900D920020E1F70895FB01DC0141501E
:10437000504030F08D910190801919F40020B9F768
:10438000881B990B0895FB01DC014150504048F017
:1043900001900D920020C9F701C01D92415050407C
:1043A000E0F70895FC0181E090E00190061609F421
:1043B000CF010020D1F701970895FB0151915523BA
:1043C000A9F0BF01DC014D9145174111E1F759F406
:1043D000CD010190002049F04D9140154111C9F3E4
:1043E000FB014111EFCF81E090E001970895453244
:1043F000510520F4423010F00C940222FB0110828F
:10440000CB010895BB274A3031F4992322F4BDE251
:10441000909581959F4F0C9475222532310520F49B
:10442000223010F00C941822FA011082CA0108956B
:10443000BB272A3051F4992342F4BDE29095809530
:10444000709561957F4F8F4F9F4F0C944822592F45
:10445000482F372F262F660F771F881F991F660F4B
:10446000771F881F991F620F731F841F951F660F88
:10447000771F881F991F08952532310520F42230B7
:1044800010F00C944722FA011082CA010895BB274C
:10449000FA01A62F6217710581059105330B30FBD8
:1044A00066F0AA27660F771F881F991FAA1FA217F9
:1044B00010F0A21B63953850A9F7A05DAA3308F04D
:1044C000A95DA19336F7B111B1931082CA010C9482
:1044D0009E244532510520F4423010F00C94742291
:1044E000FB011082CB010895BB27FB015527AA27AA
:1044F000880F991FAA1FA41710F0A41B8395505171
:10450000B9F7A05DAA3308F0A95DA193009779F7E8
:10451000B111B1931192CB010C949E24A0E0B0E0B4
:10452000E4E9F2E20C941821AE014B5F5F4FFA010F
:1045300061917191AF0180915103909152030E945A
:10454000A422E2E00C943421ABE0B0E0EAEAF2E22B
:104550000C9408216C017B018A01FC0117821682F0
:10456000838181FFCCC1CE0101963C01F60193818C
:10457000F70193FD859193FF81917F01882309F4D1
:10458000BAC1853239F493FD859193FF81917F0102
:10459000853229F4B60190E00E94AE24E7CF912C39
:1045A000212C312CFFE1F315D8F08B3279F038F45F
:1045B000803279F08332A1F4232D20611DC08D3229
:1045C00061F0803369F4232D216016C0832D826051
:1045D000382EE32DE4603E2E2AC0F32DF8601DC076
:1045E00037FC2DC020ED280F2A3040F08E32B9F470
:1045F00036FC81C1232D2064322E19C036FE06C040
:104600008AE0989E200D1124922E11C0EAE02E9E81
:10461000200D1124222EF32DF0623F2E08C08C367F
:1046200021F4832D8068382E02C0883641F4F701CA
:1046300093FD859193FF81917F018111B3CF982FD5
:104640009F7D9554933028F40C5F1F4F9FE399830F
:104650000DC0833631F0833771F0833509F059C0CE
:1046600021C0F801808189830E5F1F4F88248394C5
:10467000912C530113C02801F2E04F0E511CF80198
:10468000A080B18036FE03C0692D70E002C06FEFDC
:104690007FEFC5010E9493244C018201F32DFF7727
:1046A0003F2E16C0280122E0420E511CF801A080C6
:1046B000B18036FE03C0692D70E002C06FEF7FEF5E
:1046C000C5010E9488244C01F32DF0683F2E820121
:1046D00033FC1BC0822D90E088169906B0F4B60119
:1046E00080E290E00E94AE242A94F4CFF50137FCDA
:1046F000859137FE81915F01B60190E00E94AE2462
:1047000021102A9421E0821A91088114910471F7F2
:10471000E8C0843611F0893641F5F80137FE07C04C
:1047200060817181828193810C5F1F4F08C060811D
:104730007181072E000C880B990B0E5F1F4FF32D14
:10474000FF763F2E97FF09C09095809570956195F3
:104750007F4F8F4F9F4FF0683F2E2AE030E0A3013C
:104760000E94EA24882E861845C0853731F4232D0F
:104770002F7EB22E2AE030E025C0932D997FB92EEE
:104780008F36C1F018F4883579F0B5C0803719F04C
:10479000883721F0B0C0E92FE061BE2EB4FE0DC015
:1047A000FB2DF460BF2E09C034FE0AC0292F2660FD
:1047B000B22E06C028E030E005C020E130E002C0A3
:1047C00020E132E0F801B7FE07C06081718182818B
:1047D00093810C5F1F4F06C06081718180E090E083
:1047E0000E5F1F4FA3010E94EA24882E8618FB2D1E
:1047F000FF773F2E36FE0DC0232D2E7FA22E89146B
:1048000058F434FE0BC032FC09C0832D8E7EA82ED6
:1048100005C0B82CA32C03C0B82C01C0B92CA4FE31
:104820000FC0FE01E80DF11D8081803321F49A2D27
:10483000997EA92E09C0A2FE06C0B394B39404C009
:104840008A2D867809F0B394A3FC11C0A0FE06C09F
:10485000B21488F4280C922C9B180EC0B21460F489
:10486000B60180E290E00E94AE24B394F7CFB21478
:1048700018F42B1802C0982C212CA4FE10C0B601ED
:1048800080E390E00E94AE24A2FE17C0A1FC03C00A
:1048900088E790E002C088E590E0B6010CC08A2D60
:1048A000867859F0A1FE02C08BE201C080E2A7FC2D
:1048B0008DE2B60190E00E94AE24891438F4B6016E
:1048C00080E390E00E94AE249A94F7CF8A94F3019B
:1048D000E80DF11D8081B60190E00E94AE248110A8
:1048E000F5CF222009F442CEB60180E290E00E948A
:1048F000AE242A94F6CFF6018681978102C08FEF0D
:104900009FEF2B96E2E10C942421992788270895A4
:10491000FC010590615070400110D8F7809590958A
:104920008E0F9F1F0895FC0161507040019001108F
:10493000D8F7809590958E0F9F1F0895DC01FC019C
:10494000672F71917723E1F7329704C07C916D93C3
:1049500070836291AE17BF07C8F308950F931F933A
:10496000CF93DF93FB01238121FD03C08FEF9FEFE6
:104970002CC022FF16C04681578124813581421701
:10498000530744F4A081B1819D012F5F3F4F3183D4
:1049900020838C93268137812F5F3F4F3783268377
:1049A00014C08B01EC01FB010084F185E02D099519
:1049B000892BE1F6D80116968D919C911797019657
:1049C00017969C938E931697CE01DF91CF911F91EE
:1049D0000F910895FA01AA27283051F1203181F171
:1049E000E8946F936E7F6E5F7F4F8F4F9F4FAF4FF7
:1049F000B1E03ED0B4E03CD0670F781F891F9A1F0A
:104A0000A11D680F791F8A1F911DA11D6A0F711DBD
:104A1000811D911DA11D20D009F468943F912AE0C9
:104A2000269F11243019305D3193DEF6CF010895B1
:104A3000462F4770405D4193B3E00FD0C9F7F6CFE2
:104A4000462F4F70405D4A3318F0495D31FD4052AA
:104A5000419302D0A9F7EACFB4E0A6959795879540
:104A600077956795BA95C9F700976105710508951F
:104A70009B01AC010A2E06945795479537952795CB
:104A8000BA95C9F7620F731F841F951FA01D089563
:044A9000F894FFCFC8
:104A940000005503800001304050696E69745F73F3
:104AA400657269616C3A207061737300696E697430
:104AB4005F63616E3A207265747279696E6700692A
:104AC4006E69745F63616E3A207061737300696E1E
:104AD400697420636F6D706C657465202D2052615C
:104AE4007A6F7200696E697420436F6E74726F6CB2
:104AF4002043414E202D200054696D656F7574204C
:104B04002D20636F6E74726F6C6C657220636F6DB1
:104B14006D616E64004661756C74207265706F72AD
:104B2400742072656365697665642066726F6D3A98
:104B340020002020445443733A20004F7065726172
:104B4400746F72206F76657272696465004D7920A6
:104B540073757065722073706F6F6620686967681B
:104B6400207468726F74746C653A20256620004D59
:104B7400792073757065722073706F6F66206C6F27
:104B840077207468726F74746C653A20256620000F
:104B9400436F6E74726F6C20656E61626C65640045
:104BA4004261642076616C7565207265616420667B
:104BB400726F6D20616363656C657261746F7220DE
:104BC400706F736974696F6E2073656E736F7200B2
:104BD400436F6E74726F6C2064697361626C656498
:104BE4000000000000D60C420F7F0CAB0C8F0CCBE6
:104BF4000C6E616E00696E66006F7666002E0000B2
:00000001FF
